tcpdump: verbose output suppressed, use -v or -vv for full protocol decode
listening on eth0, link-type EN10MB (Ethernet), capture size 262144 bytes
05:46:24.447657 IP turing.53068 > 172-17-0-5.ingress-svc.default.svc.cluster.local.http: Flags [S], seq 3652627532, win 64240, options [mss 1460,sackOK,TS val 1604317999 ecr 0,nop,wscale 7], length 0
	0x0000:  4500 003c ccbc 4000 3f06 16d7 ac11 0001
	0x0010:  ac11 0005 cf4c 0050 d9b6 ac4c 0000 0000
	0x0020:  a002 faf0 5857 0000 0204 05b4 0402 080a
	0x0030:  5f9f f32f 0000 0000 0103 0307
05:46:24.466788 IP turing.43918 > 172-17-0-3.wordcount-svc.default.svc.cluster.local.http: Flags [S], seq 3993462782, win 64240, options [mss 1460,sackOK,TS val 1839971704 ecr 0,nop,wscale 7], length 0
	0x0000:  4500 003c 79a5 4000 4006 68f0 ac11 0001
	0x0010:  ac11 0003 ab8e 0050 ee07 67fe 0000 0000
	0x0020:  a002 faf0 5855 0000 0204 05b4 0402 080a
	0x0030:  6dab bd78 0000 0000 0103 0307
05:46:25.492389 IP turing.11516 > reverse-deploy-7c7c45894f-rqdqw.http: Flags [S], seq 26991070, win 64240, options [mss 1460,sackOK,TS val 868402233 ecr 0,nop,wscale 7], length 0
	0x0000:  4500 003c 9925 4000 4006 496f ac11 0001
	0x0010:  ac11 0004 2cfc 0050 019b d9de 0000 0000
	0x0020:  a002 faf0 5856 0000 0204 05b4 0402 080a
	0x0030:  33c2 c439 0000 0000 0103 0307
05:46:25.492410 IP reverse-deploy-7c7c45894f-rqdqw.http > turing.11516: Flags [S.], seq 1719915438, ack 26991071, win 65160, options [mss 1460,sackOK,TS val 3581525207 ecr 868402233,nop,wscale 7], length 0
	0x0000:  4500 003c 0000 4000 4006 e294 ac11 0004
	0x0010:  ac11 0001 0050 2cfc 6683 d3ae 019b d9df
	0x0020:  a012 fe88 5856 0000 0204 05b4 0402 080a
	0x0030:  d579 bcd7 33c2 c439 0103 0307
05:46:25.492470 IP turing.11516 > reverse-deploy-7c7c45894f-rqdqw.http: Flags [.], ack 1, win 502, options [nop,nop,TS val 868402233 ecr 3581525207], length 0
	0x0000:  4500 0034 9926 4000 4006 4976 ac11 0001
	0x0010:  ac11 0004 2cfc 0050 019b d9df 6683 d3af
	0x0020:  8010 01f6 584e 0000 0101 080a 33c2 c439
	0x0030:  d579 bcd7
05:46:25.492750 IP turing.11516 > reverse-deploy-7c7c45894f-rqdqw.http: Flags [P.], seq 1:144, ack 1, win 502, options [nop,nop,TS val 868402233 ecr 3581525207], length 143: HTTP: POST /reverse HTTP/1.1
	0x0000:  4500 00c3 9927 4000 4006 48e6 ac11 0001
	0x0010:  ac11 0004 2cfc 0050 019b d9df 6683 d3af
	0x0020:  8018 01f6 58dd 0000 0101 080a 33c2 c439
	0x0030:  d579 bcd7 504f 5354 202f 7265 7665 7273
	0x0040:  6520 4854 5450 2f31 2e31 0d0a 636f 6e74
	0x0050:  656e 742d 7479 7065 3a20 6170 706c 6963
	0x0060:  6174 696f 6e2f 6a73 6f6e 0d0a 636f 6e74
	0x0070:  656e 742d 6c65 6e67 7468 3a20 3330 0d0a
	0x0080:  6163 6365 7074 3a20 2a2f 2a0d 0a68 6f73
	0x0090:  743a 2031 302e 3130 372e 3131 312e 3132
	0x00a0:  380d 0a0d 0a7b 226d 6964 223a 2231 222c
	0x00b0:  2274 6578 7422 3a22 7465 7374 2074 6573
	0x00c0:  7422 7d
05:46:25.492774 IP reverse-deploy-7c7c45894f-rqdqw.http > turing.11516: Flags [.], ack 144, win 508, options [nop,nop,TS val 3581525207 ecr 868402233], length 0
	0x0000:  4500 0034 a5d9 4000 4006 3cc3 ac11 0004
	0x0010:  ac11 0001 0050 2cfc 6683 d3af 019b da6e
	0x0020:  8010 01fc 584e 0000 0101 080a d579 bcd7
	0x0030:  33c2 c439
05:46:25.493044 IP reverse-deploy-7c7c45894f-rqdqw.http > turing.11516: Flags [P.], seq 1:156, ack 144, win 508, options [nop,nop,TS val 3581525208 ecr 868402233], length 155: HTTP: HTTP/1.1 200 OK
	0x0000:  4500 00cf a5da 4000 4006 3c27 ac11 0004
	0x0010:  ac11 0001 0050 2cfc 6683 d3af 019b da6e
	0x0020:  8018 01fc 58e9 0000 0101 080a d579 bcd8
	0x0030:  33c2 c439 4854 5450 2f31 2e31 2032 3030
	0x0040:  204f 4b0d 0a53 6572 7665 723a 2074 696e
	0x0050:  792d 6874 7470 2028 5275 7374 290d 0a44
	0x0060:  6174 653a 2054 6875 2c20 2034 204d 6172
	0x0070:  2032 3032 3120 3035 3a34 363a 3235 2047
	0x0080:  4d54 0d0a 436f 6e74 656e 742d 5479 7065
	0x0090:  3a20 7465 7874 2f70 6c61 696e 3b20 6368
	0x00a0:  6172 7365 743d 5554 462d 380d 0a43 6f6e
	0x00b0:  7465 6e74 2d4c 656e 6774 683a 2031 320d
	0x00c0:  0a0d 0a31 3a20 7473 6574 2074 7365 74
05:46:25.493105 IP turing.11516 > reverse-deploy-7c7c45894f-rqdqw.http: Flags [.], ack 156, win 501, options [nop,nop,TS val 868402234 ecr 3581525208], length 0
	0x0000:  4500 0034 9928 4000 4006 4974 ac11 0001
