tcpdump: verbose output suppressed, use -v or -vv for full protocol decode
listening on eth0, link-type EN10MB (Ethernet), capture size 262144 bytes
05:46:24.447661 IP turing.53068 > 172-17-0-5.ingress-svc.default.svc.cluster.local.http: Flags [S], seq 3652627532, win 64240, options [mss 1460,sackOK,TS val 1604317999 ecr 0,nop,wscale 7], length 0
	0x0000:  4500 003c ccbc 4000 3f06 16d7 ac11 0001
	0x0010:  ac11 0005 cf4c 0050 d9b6 ac4c 0000 0000
	0x0020:  a002 faf0 5857 0000 0204 05b4 0402 080a
	0x0030:  5f9f f32f 0000 0000 0103 0307
05:46:24.466791 IP turing.43918 > wordcount-deploy-78ccb799f6-x6rcv.http: Flags [S], seq 3993462782, win 64240, options [mss 1460,sackOK,TS val 1839971704 ecr 0,nop,wscale 7], length 0
	0x0000:  4500 003c 79a5 4000 4006 68f0 ac11 0001
	0x0010:  ac11 0003 ab8e 0050 ee07 67fe 0000 0000
	0x0020:  a002 faf0 5855 0000 0204 05b4 0402 080a
	0x0030:  6dab bd78 0000 0000 0103 0307
05:46:24.466852 IP wordcount-deploy-78ccb799f6-x6rcv.http > turing.43918: Flags [S.], seq 1489987627, ack 3993462783, win 65160, options [mss 1460,sackOK,TS val 444698807 ecr 1839971704,nop,wscale 7], length 0
	0x0000:  4500 003c 0000 4000 4006 e295 ac11 0003
	0x0010:  ac11 0001 0050 ab8e 58cf 682b ee07 67ff
	0x0020:  a012 fe88 5855 0000 0204 05b4 0402 080a
	0x0030:  1a81 90b7 6dab bd78 0103 0307
05:46:24.466882 IP turing.43918 > wordcount-deploy-78ccb799f6-x6rcv.http: Flags [.], ack 1, win 502, options [nop,nop,TS val 1839971705 ecr 444698807], length 0
	0x0000:  4500 0034 79a6 4000 4006 68f7 ac11 0001
	0x0010:  ac11 0003 ab8e 0050 ee07 67ff 58cf 682c
	0x0020:  8010 01f6 584d 0000 0101 080a 6dab bd79
	0x0030:  1a81 90b7
05:46:24.467098 IP turing.43918 > wordcount-deploy-78ccb799f6-x6rcv.http: Flags [P.], seq 1:146, ack 1, win 502, options [nop,nop,TS val 1839971705 ecr 444698807], length 145: HTTP: POST /wordcount HTTP/1.1
	0x0000:  4500 00c5 79a7 4000 4006 6865 ac11 0001
	0x0010:  ac11 0003 ab8e 0050 ee07 67ff 58cf 682c
	0x0020:  8018 01f6 58de 0000 0101 080a 6dab bd79
	0x0030:  1a81 90b7 504f 5354 202f 776f 7264 636f
	0x0040:  756e 7420 4854 5450 2f31 2e31 0d0a 636f
	0x0050:  6e74 656e 742d 7479 7065 3a20 6170 706c
	0x0060:  6963 6174 696f 6e2f 6a73 6f6e 0d0a 636f
	0x0070:  6e74 656e 742d 6c65 6e67 7468 3a20 3330
	0x0080:  0d0a 6163 6365 7074 3a20 2a2f 2a0d 0a68
	0x0090:  6f73 743a 2031 302e 3130 312e 3235 322e
	0x00a0:  3132 320d 0a0d 0a7b 226d 6964 223a 2231
	0x00b0:  222c 2274 6578 7422 3a22 7465 7374 2074
	0x00c0:  6573 7422 7d
05:46:24.467120 IP wordcount-deploy-78ccb799f6-x6rcv.http > turing.43918: Flags [.], ack 146, win 508, options [nop,nop,TS val 444698808 ecr 1839971705], length 0
	0x0000:  4500 0034 b8cc 4000 4006 29d1 ac11 0003
	0x0010:  ac11 0001 0050 ab8e 58cf 682c ee07 6890
	0x0020:  8010 01fc 584d 0000 0101 080a 1a81 90b8
	0x0030:  6dab bd79
05:46:24.467363 IP wordcount-deploy-78ccb799f6-x6rcv.http > turing.43918: Flags [P.], seq 1:147, ack 146, win 508, options [nop,nop,TS val 444698808 ecr 1839971705], length 146: HTTP: HTTP/1.1 200 OK
	0x0000:  4500 00c6 b8cd 4000 4006 293e ac11 0003
	0x0010:  ac11 0001 0050 ab8e 58cf 682c ee07 6890
	0x0020:  8018 01fc 58df 0000 0101 080a 1a81 90b8
	0x0030:  6dab bd79 4854 5450 2f31 2e31 2032 3030
	0x0040:  204f 4b0d 0a53 6572 7665 723a 2074 696e
	0x0050:  792d 6874 7470 2028 5275 7374 290d 0a44
	0x0060:  6174 653a 2054 6875 2c20 2034 204d 6172
	0x0070:  2032 3032 3120 3035 3a34 363a 3234 2047
	0x0080:  4d54 0d0a 436f 6e74 656e 742d 5479 7065
	0x0090:  3a20 7465 7874 2f70 6c61 696e 3b20 6368
	0x00a0:  6172 7365 743d 5554 462d 380d 0a43 6f6e
	0x00b0:  7465 6e74 2d4c 656e 6774 683a 2034 0d0a
	0x00c0:  0d0a 313a 2039
05:46:24.467426 IP turing.43918 > wordcount-deploy-78ccb799f6-x6rcv.http: Flags [.], ack 147, win 501, options [nop,nop,TS val 1839971705 ecr 444698808], length 0
	0x0000:  4500 0034 79a8 4000 4006 68f5 ac11 0001
	0x0010:  ac11 0003 ab8e 0050 ee07 6890 58cf 68be
	0x0020:  8010 01f5 584d 0000 0101 080a 6dab bd79
	0x0030:  1a81 90b8
05:46:24.468348 IP turing.43918 > wordcount-deploy-78ccb799f6-x6rcv.http: Flags [F.], seq 146, ack 147, win 501, options [nop,nop,TS val 1839971706 ecr 444698808], length 0
	0x0000:  4500 0034 79a9 4000 4006 68f4 ac11 0001
	0x0010:  ac11 0003 ab8e 0050 ee07 6890 58cf 68be
